{
  "contractName": "Buyer",
  "abi": [
    {
      "inputs": [],
      "stateMutability": "nonpayable",
      "type": "constructor"
    },
    {
      "inputs": [
        {
          "internalType": "uint256",
          "name": "",
          "type": "uint256"
        }
      ],
      "name": "Buyers",
      "outputs": [
        {
          "internalType": "uint256",
          "name": "buyerID",
          "type": "uint256"
        },
        {
          "internalType": "string",
          "name": "name",
          "type": "string"
        },
        {
          "internalType": "uint40",
          "name": "num",
          "type": "uint40"
        },
        {
          "internalType": "string",
          "name": "addr",
          "type": "string"
        },
        {
          "internalType": "uint256",
          "name": "pincode",
          "type": "uint256"
        }
      ],
      "stateMutability": "view",
      "type": "function",
      "constant": true
    },
    {
      "inputs": [
        {
          "internalType": "address",
          "name": "_seller",
          "type": "address"
        }
      ],
      "name": "chooseSeller",
      "outputs": [
        {
          "internalType": "address",
          "name": "",
          "type": "address"
        }
      ],
      "stateMutability": "nonpayable",
      "type": "function"
    },
    {
      "inputs": [
        {
          "internalType": "address",
          "name": "_addrs",
          "type": "address"
        }
      ],
      "name": "chooseFreight",
      "outputs": [
        {
          "internalType": "address",
          "name": "",
          "type": "address"
        }
      ],
      "stateMutability": "nonpayable",
      "type": "function"
    },
    {
      "inputs": [
        {
          "internalType": "uint256",
          "name": "id",
          "type": "uint256"
        },
        {
          "internalType": "string",
          "name": "_name",
          "type": "string"
        },
        {
          "internalType": "uint40",
          "name": "_num",
          "type": "uint40"
        },
        {
          "internalType": "string",
          "name": "addrs",
          "type": "string"
        },
        {
          "internalType": "uint256",
          "name": "_pin",
          "type": "uint256"
        }
      ],
      "name": "register",
      "outputs": [],
      "stateMutability": "nonpayable",
      "type": "function"
    },
    {
      "inputs": [
        {
          "internalType": "uint256",
          "name": "PID",
          "type": "uint256"
        }
      ],
      "name": "requestProduct",
      "outputs": [
        {
          "internalType": "string",
          "name": "",
          "type": "string"
        },
        {
          "internalType": "string",
          "name": "",
          "type": "string"
        },
        {
          "internalType": "uint256",
          "name": "",
          "type": "uint256"
        },
        {
          "internalType": "bool",
          "name": "",
          "type": "bool"
        },
        {
          "internalType": "address",
          "name": "",
          "type": "address"
        }
      ],
      "stateMutability": "nonpayable",
      "type": "function"
    },
    {
      "inputs": [
        {
          "internalType": "uint256",
          "name": "PID",
          "type": "uint256"
        },
        {
          "internalType": "uint256",
          "name": "rId",
          "type": "uint256"
        }
      ],
      "name": "Buy",
      "outputs": [],
      "stateMutability": "payable",
      "type": "function",
      "payable": true
    },
    {
      "inputs": [
        {
          "internalType": "uint256",
          "name": "oid",
          "type": "uint256"
        }
      ],
      "name": "bookFreight",
      "outputs": [],
      "stateMutability": "payable",
      "type": "function",
      "payable": true
    }
  ],
  "bytecode": "0x608060405234801561001057600080fd5b5033600160006101000a81548173ffffffffffffffffffffffffffffffffffffffff021916908373ffffffffffffffffffffffffffffffffffffffff16021790555061171d806100616000396000f3fe6080604052600436106100705760003560e01c806394668e1f1161004e57806394668e1f1461010f578063a443df941461012b578063e260365b1461016c578063f73e399d146101a957610070565b806349194b091461007557806376911b5d146100b65780638d289e85146100d2575b600080fd5b34801561008157600080fd5b5061009c60048036038101906100979190610af9565b6101d2565b6040516100ad959493929190610c21565b60405180910390f35b6100d060048036038101906100cb9190610c82565b610295565b005b3480156100de57600080fd5b506100f960048036038101906100f49190610cee565b6105d4565b6040516101069190610d1b565b60405180910390f35b61012960048036038101906101249190610af9565b61061f565b005b34801561013757600080fd5b50610152600480360381019061014d9190610af9565b6107db565b604051610163959493929190610d56565b60405180910390f35b34801561017857600080fd5b50610193600480360381019061018e9190610cee565b610932565b6040516101a09190610d1b565b60405180910390f35b3480156101b557600080fd5b506101d060048036038101906101cb9190610f18565b6109df565b005b60608060008060008033905060008054906101000a900473ffffffffffffffffffffffffffffffffffffffff1673ffffffffffffffffffffffffffffffffffffffff1663ceff8af388836040518363ffffffff1660e01b8152600401610239929190610fcb565b6000604051808303816000875af1158015610258573d6000803e3d6000fd5b505050506040513d6000823e3d601f19601f8201168201806040525081019061028191906110ba565b955095509550955095505091939590929450565b600033905060006004600084815260200190815260200160002060010180546102bd9061119c565b80601f01602080910402602001604051908101604052809291908181526020018280546102e99061119c565b80156103365780601f1061030b57610100808354040283529160200191610336565b820191906000526020600020905b81548152906001019060200180831161031957829003601f168201915b5050505050905060006004600085815260200190815260200160002060020160009054906101000a900464ffffffffff1664ffffffffff16905060006004600086815260200190815260200160002060030180546103939061119c565b80601f01602080910402602001604051908101604052809291908181526020018280546103bf9061119c565b801561040c5780601f106103e15761010080835404028352916020019161040c565b820191906000526020600020905b8154815290600101906020018083116103ef57829003601f168201915b5050505050905060006004600087815260200190815260200160002060040154905060008060008054906101000a900473ffffffffffffffffffffffffffffffffffffffff1673ffffffffffffffffffffffffffffffffffffffff166375146e868a89898989896040518763ffffffff1660e01b8152600401610494969594939291906111cd565b60408051808303816000875af11580156104b2573d6000803e3d6000fd5b505050506040513d601f19601f820116820180604052508101906104d6919061123c565b9150915081341461051c576040517f08c379a0000000000000000000000000000000000000000000000000000000008152600401610513906112c8565b60405180910390fd5b60008173ffffffffffffffffffffffffffffffffffffffff163460405161054290611319565b60006040518083038185875af1925050503d806000811461057f576040519150601f19603f3d011682016040523d82523d6000602084013e610584565b606091505b50509050806105c8576040517f08c379a00000000000000000000000000000000000000000000000000000000081526004016105bf9061137a565b60405180910390fd5b50505050505050505050565b600081600260006101000a81548173ffffffffffffffffffffffffffffffffffffffff021916908373ffffffffffffffffffffffffffffffffffffffff160217905550819050919050565b600080600260009054906101000a900473ffffffffffffffffffffffffffffffffffffffff1673ffffffffffffffffffffffffffffffffffffffff1663eb28326184600560009054906101000a900473ffffffffffffffffffffffffffffffffffffffff166040518363ffffffff1660e01b81526004016106a1929190610fcb565b60408051808303816000875af11580156106bf573d6000803e3d6000fd5b505050506040513d601f19601f820116820180604052508101906106e3919061123c565b91509150813414610729576040517f08c379a0000000000000000000000000000000000000000000000000000000008152600401610720906113e6565b60405180910390fd5b60008173ffffffffffffffffffffffffffffffffffffffff163460405161074f90611319565b60006040518083038185875af1925050503d806000811461078c576040519150601f19603f3d011682016040523d82523d6000602084013e610791565b606091505b50509050806107d5576040517f08c379a00000000000000000000000000000000000000000000000000000000081526004016107cc9061137a565b60405180910390fd5b50505050565b60046020528060005260406000206000915090508060000154908060010180546108049061119c565b80601f01602080910402602001604051908101604052809291908181526020018280546108309061119c565b801561087d5780601f106108525761010080835404028352916020019161087d565b820191906000526020600020905b81548152906001019060200180831161086057829003601f168201915b5050505050908060020160009054906101000a900464ffffffffff16908060030180546108a99061119c565b80601f01602080910402602001604051908101604052809291908181526020018280546108d59061119c565b80156109225780601f106108f757610100808354040283529160200191610922565b820191906000526020600020905b81548152906001019060200180831161090557829003601f168201915b5050505050908060040154905085565b600081600560006101000a81548173ffffffffffffffffffffffffffffffffffffffff021916908373ffffffffffffffffffffffffffffffffffffffff160217905550816000806101000a81548173ffffffffffffffffffffffffffffffffffffffff021916908373ffffffffffffffffffffffffffffffffffffffff160217905550600560009054906101000a900473ffffffffffffffffffffffffffffffffffffffff169050919050565b6001600360008282546109f29190611435565b925050819055506040518060a001604052808681526020018581526020018464ffffffffff16815260200183815260200182815250600460006003548152602001908152602001600020600082015181600001556020820151816001019081610a5b9190611615565b5060408201518160020160006101000a81548164ffffffffff021916908364ffffffffff1602179055506060820151816003019081610a9a9190611615565b50608082015181600401559050505050505050565b6000604051905090565b600080fd5b600080fd5b6000819050919050565b610ad681610ac3565b8114610ae157600080fd5b50565b600081359050610af381610acd565b92915050565b600060208284031215610b0f57610b0e610ab9565b5b6000610b1d84828501610ae4565b91505092915050565b600081519050919050565b600082825260208201905092915050565b60005b83811015610b60578082015181840152602081019050610b45565b60008484015250505050565b6000601f19601f8301169050919050565b6000610b8882610b26565b610b928185610b31565b9350610ba2818560208601610b42565b610bab81610b6c565b840191505092915050565b610bbf81610ac3565b82525050565b60008115159050919050565b610bda81610bc5565b82525050565b600073ffffffffffffffffffffffffffffffffffffffff82169050919050565b6000610c0b82610be0565b9050919050565b610c1b81610c00565b82525050565b600060a0820190508181036000830152610c3b8188610b7d565b90508181036020830152610c4f8187610b7d565b9050610c5e6040830186610bb6565b610c6b6060830185610bd1565b610c786080830184610c12565b9695505050505050565b60008060408385031215610c9957610c98610ab9565b5b6000610ca785828601610ae4565b9250506020610cb885828601610ae4565b9150509250929050565b610ccb81610c00565b8114610cd657600080fd5b50565b600081359050610ce881610cc2565b92915050565b600060208284031215610d0457610d03610ab9565b5b6000610d1284828501610cd9565b91505092915050565b6000602082019050610d306000830184610c12565b92915050565b600064ffffffffff82169050919050565b610d5081610d36565b82525050565b600060a082019050610d6b6000830188610bb6565b8181036020830152610d7d8187610b7d565b9050610d8c6040830186610d47565b8181036060830152610d9e8185610b7d565b9050610dad6080830184610bb6565b9695505050505050565b600080fd5b600080fd5b7f4e487b7100000000000000000000000000000000000000000000000000000000600052604160045260246000fd5b610df982610b6c565b810181811067ffffffffffffffff82111715610e1857610e17610dc1565b5b80604052505050565b6000610e2b610aaf565b9050610e378282610df0565b919050565b600067ffffffffffffffff821115610e5757610e56610dc1565b5b610e6082610b6c565b9050602081019050919050565b82818337600083830152505050565b6000610e8f610e8a84610e3c565b610e21565b905082815260208101848484011115610eab57610eaa610dbc565b5b610eb6848285610e6d565b509392505050565b600082601f830112610ed357610ed2610db7565b5b8135610ee3848260208601610e7c565b91505092915050565b610ef581610d36565b8114610f0057600080fd5b50565b600081359050610f1281610eec565b92915050565b600080600080600060a08688031215610f3457610f33610ab9565b5b6000610f4288828901610ae4565b955050602086013567ffffffffffffffff811115610f6357610f62610abe565b5b610f6f88828901610ebe565b9450506040610f8088828901610f03565b935050606086013567ffffffffffffffff811115610fa157610fa0610abe565b5b610fad88828901610ebe565b9250506080610fbe88828901610ae4565b9150509295509295909350565b6000604082019050610fe06000830185610bb6565b610fed6020830184610c12565b9392505050565b600061100761100284610e3c565b610e21565b90508281526020810184848401111561102357611022610dbc565b5b61102e848285610b42565b509392505050565b600082601f83011261104b5761104a610db7565b5b815161105b848260208601610ff4565b91505092915050565b60008151905061107381610acd565b92915050565b61108281610bc5565b811461108d57600080fd5b50565b60008151905061109f81611079565b92915050565b6000815190506110b481610cc2565b92915050565b600080600080600060a086880312156110d6576110d5610ab9565b5b600086015167ffffffffffffffff8111156110f4576110f3610abe565b5b61110088828901611036565b955050602086015167ffffffffffffffff81111561112157611120610abe565b5b61112d88828901611036565b945050604061113e88828901611064565b935050606061114f88828901611090565b9250506080611160888289016110a5565b9150509295509295909350565b7f4e487b7100000000000000000000000000000000000000000000000000000000600052602260045260246000fd5b600060028204905060018216806111b457607f821691505b6020821081036111c7576111c661116d565b5b50919050565b600060c0820190506111e26000830189610bb6565b6111ef6020830188610c12565b81810360408301526112018187610b7d565b90506112106060830186610bb6565b81810360808301526112228185610b7d565b905061123160a0830184610bb6565b979650505050505050565b6000806040838503121561125357611252610ab9565b5b600061126185828601611064565b9250506020611272858286016110a5565b9150509250929050565b7f63616e2774206166666f72640000000000000000000000000000000000000000600082015250565b60006112b2600c83610b31565b91506112bd8261127c565b602082019050919050565b600060208201905081810360008301526112e1816112a5565b9050919050565b600081905092915050565b50565b60006113036000836112e8565b915061130e826112f3565b600082019050919050565b6000611324826112f6565b9150819050919050565b7f7472616e73616374696f6e206661696c65640000000000000000000000000000600082015250565b6000611364601283610b31565b915061136f8261132e565b602082019050919050565b6000602082019050818103600083015261139381611357565b9050919050565b7f696e73756666696369656e742066756e64000000000000000000000000000000600082015250565b60006113d0601183610b31565b91506113db8261139a565b602082019050919050565b600060208201905081810360008301526113ff816113c3565b9050919050565b7f4e487b7100000000000000000000000000000000000000000000000000000000600052601160045260246000fd5b600061144082610ac3565b915061144b83610ac3565b925082820190508082111561146357611462611406565b5b92915050565b60008190508160005260206000209050919050565b60006020601f8301049050919050565b600082821b905092915050565b6000600883026114cb7fffffffffffffffffffffffffffffffffffffffffffffffffffffffffffffffff8261148e565b6114d5868361148e565b95508019841693508086168417925050509392505050565b6000819050919050565b600061151261150d61150884610ac3565b6114ed565b610ac3565b9050919050565b6000819050919050565b61152c836114f7565b61154061153882611519565b84845461149b565b825550505050565b600090565b611555611548565b611560818484611523565b505050565b5b818110156115845761157960008261154d565b600181019050611566565b5050565b601f8211156115c95761159a81611469565b6115a38461147e565b810160208510156115b2578190505b6115c66115be8561147e565b830182611565565b50505b505050565b600082821c905092915050565b60006115ec600019846008026115ce565b1980831691505092915050565b600061160583836115db565b9150826002028217905092915050565b61161e82610b26565b67ffffffffffffffff81111561163757611636610dc1565b5b611641825461119c565b61164c828285611588565b600060209050601f83116001811461167f576000841561166d578287015190505b61167785826115f9565b8655506116df565b601f19841661168d86611469565b60005b828110156116b557848901518255600182019150602085019450602081019050611690565b868310156116d257848901516116ce601f8916826115db565b8355505b6001600288020188555050505b50505050505056fea2646970667358221220e453a67e1c892952b69091ec0bfb24f4084c87432153be68087ae9e1648314b164736f6c63430008100033",
  "immutableReferences": {},
  "source": "// SPDX-License-Identifier: MIT\r\n\r\nimport \"./seller.sol\";\r\nimport \"./logistic.sol\";\r\n\r\npragma solidity ^0.8.16;\r\n\r\ncontract Buyer{\r\n\r\n    // Seller s;\r\n    Seller s;\r\n    address buyerAddr;\r\n    Forwarder f;\r\n\r\n    struct buyer{\r\n        uint buyerID;\r\n        string name;\r\n        uint40 num;\r\n        string addr;\r\n        uint pincode;\r\n        \r\n    }\r\n    \r\n\r\n    uint regId;\r\n    mapping (uint => buyer) public Buyers;\r\n\r\n    constructor(){\r\n         buyerAddr= msg.sender;\r\n    }\r\n\r\n    modifier onlyBuyer() {\r\n        require(msg.sender==buyerAddr, \"Not buyer\");\r\n        _;\r\n    }\r\n    \r\n    address seller;\r\n\r\n    function chooseSeller(address _seller) public returns(address) \r\n     {\r\n         seller = _seller;\r\n         s = Seller(_seller);\r\n         return seller;\r\n    }\r\n\r\n    function chooseFreight(address _addrs) public returns(address) {\r\n        \r\n        f = Forwarder(_addrs);\r\n        return _addrs;\r\n    }\r\n\r\n    function register(uint id , string memory _name,uint40  _num,string memory addrs,uint _pin) public  {\r\n          regId += 1;\r\n          Buyers[regId] = buyer(id,_name,_num,addrs,_pin);\r\n    }\r\n\r\n    function requestProduct(uint PID) public  returns ( string memory, string memory, uint,bool,address){\r\n        \r\n        address _buyer = msg.sender;\r\n        return s.requestProductQuotes(PID,_buyer);\r\n    }\r\n\r\n    function Buy(uint PID,uint rId) public payable  {\r\n    \r\n       address _buyer = msg.sender;\r\n       //uint bid = Buyers[regId].buyerID;\r\n       string memory _name = Buyers[rId].name;\r\n       uint bnum = Buyers[rId].num;\r\n       string memory bAdrs = Buyers[rId].addr;\r\n       uint _pin  = Buyers[rId].pincode;\r\n       \r\n      (uint price,address _seller) = s.order(PID,_buyer,_name,bnum,bAdrs,_pin);\r\n\r\n       require(msg.value == price, \"can't afford\");\r\n       (bool status, ) = _seller.call{value: msg.value}(\"\");\r\n       require(status,\"transaction failed\");\r\n       \r\n \r\n    } \r\n\r\n    function bookFreight(uint oid) public payable  {\r\n        //address seller = s.sendAddrs();\r\n        (uint charge, address logisticAddr) = f.bookFreight(oid,seller);\r\n       require(msg.value == charge, \"insufficient fund\");\r\n       (bool status, ) = logisticAddr.call{value: msg.value}(\"\");\r\n       require(status,\"transaction failed\");\r\n\r\n    }\r\n    \r\n\r\n}",
  "sourcePath": "C:\\Users\\sakha\\online\\contracts\\buyer.sol",
  "compiler": {
    "name": "solc",
    "version": "0.8.16+commit.07a7930e.Emscripten.clang"
  },
  "schemaVersion": "3.4.9",
  "updatedAt": "2022-10-21T16:43:13.163Z",
  "networkType": "ethereum",
  "devdoc": {
    "kind": "dev",
    "methods": {},
    "version": 1
  },
  "userdoc": {
    "kind": "user",
    "methods": {},
    "version": 1
  }
}