{
  "contractName": "clearence",
  "abi": [
    {
      "inputs": [
        {
          "internalType": "address",
          "name": "portC",
          "type": "address"
        }
      ],
      "stateMutability": "nonpayable",
      "type": "constructor"
    },
    {
      "inputs": [
        {
          "internalType": "uint256",
          "name": "",
          "type": "uint256"
        }
      ],
      "name": "expClearence",
      "outputs": [
        {
          "internalType": "uint256",
          "name": "expId",
          "type": "uint256"
        },
        {
          "internalType": "bool",
          "name": "cleared",
          "type": "bool"
        },
        {
          "internalType": "address",
          "name": "forwarderAddr",
          "type": "address"
        },
        {
          "internalType": "address",
          "name": "seller",
          "type": "address"
        }
      ],
      "stateMutability": "view",
      "type": "function",
      "constant": true
    },
    {
      "inputs": [
        {
          "internalType": "uint256",
          "name": "",
          "type": "uint256"
        }
      ],
      "name": "impClearence",
      "outputs": [
        {
          "internalType": "uint256",
          "name": "expId",
          "type": "uint256"
        },
        {
          "internalType": "bool",
          "name": "cleared",
          "type": "bool"
        },
        {
          "internalType": "address",
          "name": "forwarderAddr",
          "type": "address"
        },
        {
          "internalType": "address",
          "name": "seller",
          "type": "address"
        }
      ],
      "stateMutability": "view",
      "type": "function",
      "constant": true
    },
    {
      "inputs": [
        {
          "internalType": "uint256",
          "name": "eid",
          "type": "uint256"
        },
        {
          "internalType": "address",
          "name": "_forworder",
          "type": "address"
        },
        {
          "internalType": "address",
          "name": "_seller",
          "type": "address"
        }
      ],
      "name": "exportClearence",
      "outputs": [
        {
          "internalType": "bool",
          "name": "",
          "type": "bool"
        }
      ],
      "stateMutability": "nonpayable",
      "type": "function"
    },
    {
      "inputs": [
        {
          "internalType": "uint256",
          "name": "eid",
          "type": "uint256"
        },
        {
          "internalType": "address",
          "name": "_forworder",
          "type": "address"
        },
        {
          "internalType": "address",
          "name": "_seller",
          "type": "address"
        }
      ],
      "name": "importClearence",
      "outputs": [
        {
          "internalType": "bool",
          "name": "",
          "type": "bool"
        }
      ],
      "stateMutability": "nonpayable",
      "type": "function"
    }
  ],
  "bytecode": "0x608060405260018055600160025534801561001957600080fd5b5060405161090f38038061090f833981810160405281019061003b91906100e5565b80600560006101000a81548173ffffffffffffffffffffffffffffffffffffffff021916908373ffffffffffffffffffffffffffffffffffffffff16021790555050610112565b600080fd5b600073ffffffffffffffffffffffffffffffffffffffff82169050919050565b60006100b282610087565b9050919050565b6100c2816100a7565b81146100cd57600080fd5b50565b6000815190506100df816100b9565b92915050565b6000602082840312156100fb576100fa610082565b5b6000610109848285016100d0565b91505092915050565b6107ee806101216000396000f3fe608060405234801561001057600080fd5b506004361061004c5760003560e01c80632afb1be3146100515780636780f95214610084578063a46cbda2146100b4578063debbb5bb146100e7575b600080fd5b61006b600480360381019061006691906105c4565b610117565b60405161007b949392919061065c565b60405180910390f35b61009e600480360381019061009991906106cd565b610194565b6040516100ab9190610720565b60405180910390f35b6100ce60048036038101906100c991906105c4565b610350565b6040516100de949392919061065c565b60405180910390f35b61010160048036038101906100fc91906106cd565b6103cd565b60405161010e9190610720565b60405180910390f35b60046020528060005260406000206000915090508060000154908060010160009054906101000a900460ff16908060010160019054906101000a900473ffffffffffffffffffffffffffffffffffffffff16908060020160009054906101000a900473ffffffffffffffffffffffffffffffffffffffff16905084565b600080151560046000600254815260200190815260200160002060010160009054906101000a900460ff16151514610201576040517f08c379a00000000000000000000000000000000000000000000000000000000081526004016101f890610798565b60405180910390fd5b60405180608001604052808581526020016001151581526020018473ffffffffffffffffffffffffffffffffffffffff1681526020018373ffffffffffffffffffffffffffffffffffffffff168152506004600060025481526020019081526020016000206000820151816000015560208201518160010160006101000a81548160ff02191690831515021790555060408201518160010160016101000a81548173ffffffffffffffffffffffffffffffffffffffff021916908373ffffffffffffffffffffffffffffffffffffffff16021790555060608201518160020160006101000a81548173ffffffffffffffffffffffffffffffffffffffff021916908373ffffffffffffffffffffffffffffffffffffffff16021790555090505060046000600254815260200190815260200160002060010160009054906101000a900460ff1690509392505050565b60036020528060005260406000206000915090508060000154908060010160009054906101000a900460ff16908060010160019054906101000a900473ffffffffffffffffffffffffffffffffffffffff16908060020160009054906101000a900473ffffffffffffffffffffffffffffffffffffffff16905084565b600080151560036000600154815260200190815260200160002060010160009054906101000a900460ff1615151461043a576040517f08c379a000000000000000000000000000000000000000000000000000000000815260040161043190610798565b60405180910390fd5b60405180608001604052808581526020016001151581526020018473ffffffffffffffffffffffffffffffffffffffff1681526020018373ffffffffffffffffffffffffffffffffffffffff168152506003600060015481526020019081526020016000206000820151816000015560208201518160010160006101000a81548160ff02191690831515021790555060408201518160010160016101000a81548173ffffffffffffffffffffffffffffffffffffffff021916908373ffffffffffffffffffffffffffffffffffffffff16021790555060608201518160020160006101000a81548173ffffffffffffffffffffffffffffffffffffffff021916908373ffffffffffffffffffffffffffffffffffffffff16021790555090505060036000600154815260200190815260200160002060010160009054906101000a900460ff1690509392505050565b600080fd5b6000819050919050565b6105a18161058e565b81146105ac57600080fd5b50565b6000813590506105be81610598565b92915050565b6000602082840312156105da576105d9610589565b5b60006105e8848285016105af565b91505092915050565b6105fa8161058e565b82525050565b60008115159050919050565b61061581610600565b82525050565b600073ffffffffffffffffffffffffffffffffffffffff82169050919050565b60006106468261061b565b9050919050565b6106568161063b565b82525050565b600060808201905061067160008301876105f1565b61067e602083018661060c565b61068b604083018561064d565b610698606083018461064d565b95945050505050565b6106aa8161063b565b81146106b557600080fd5b50565b6000813590506106c7816106a1565b92915050565b6000806000606084860312156106e6576106e5610589565b5b60006106f4868287016105af565b9350506020610705868287016106b8565b9250506040610716868287016106b8565b9150509250925092565b6000602082019050610735600083018461060c565b92915050565b600082825260208201905092915050565b7f416c726561647920636c65617265640000000000000000000000000000000000600082015250565b6000610782600f8361073b565b915061078d8261074c565b602082019050919050565b600060208201905081810360008301526107b181610775565b905091905056fea26469706673582212201d56f0fd9388a3d914d10d335ee2bea9c3e703280b137a6cd1efedaf59a2d4bd64736f6c63430008100033",
  "immutableReferences": {},
  "source": "// SPDX-License-Identifier: MIT\r\npragma solidity ^0.8.16;\r\nimport \"./logistic.sol\";\r\n\r\ncontract clearence{  \r\n    Forwarder f;\r\n    \r\n    uint Expcount=1;\r\n    struct export{\r\n\r\n       uint expId;\r\n       bool cleared;\r\n       address forwarderAddr;\r\n       address seller; \r\n    }\r\n\r\n    uint Impcount=1;\r\n    struct Import{\r\n        uint expId;\r\n        bool cleared;\r\n        address forwarderAddr;\r\n        address seller; \r\n    }\r\n    \r\n    mapping (uint => export) public  expClearence;\r\n    mapping (uint => Import) public  impClearence;\r\n\r\n    address portAddr;\r\n    //address imptAddr;\r\n\r\n    constructor (address portC) {\r\n          portAddr = portC;\r\n          //imptAddr = imp;\r\n    }\r\n\r\n    // modifier onlyExp() {\r\n    //     require(msg.sender==exportAddr, \"Not a export address\");\r\n    //     _;\r\n    // }\r\n\r\n    // modifier onlyImp() {\r\n    //     require(msg.sender==imptAddr, \"Not a import address\");\r\n    //     _;\r\n    // }\r\n    \r\n    \r\n\r\n    function exportClearence(uint eid,address  _forworder,address _seller) external  returns(bool) {\r\n        require(expClearence[Expcount].cleared == false, \"Already cleared\");\r\n         expClearence[Expcount]= export(eid,true,_forworder,_seller);\r\n         return expClearence[Expcount].cleared;\r\n\r\n    }\r\n\r\n    function importClearence(uint eid,address  _forworder,address _seller) external   returns(bool) {\r\n        require(impClearence[Impcount].cleared == false, \"Already cleared\");\r\n         impClearence[Impcount]= Import(eid,true,_forworder,_seller);\r\n         return impClearence[Impcount].cleared;\r\n    }\r\n\r\n    \r\n\r\n  \r\n          \r\n    \r\n}",
  "sourcePath": "C:\\Users\\sakha\\online\\contracts\\portclearnce.sol",
  "compiler": {
    "name": "solc",
    "version": "0.8.16+commit.07a7930e.Emscripten.clang"
  },
  "schemaVersion": "3.4.9",
  "updatedAt": "2022-10-21T16:43:19.727Z",
  "networkType": "ethereum",
  "devdoc": {
    "kind": "dev",
    "methods": {},
    "version": 1
  },
  "userdoc": {
    "kind": "user",
    "methods": {},
    "version": 1
  }
}