{
  "contractName": "Forwarder",
  "abi": [
    {
      "inputs": [
        {
          "internalType": "address",
          "name": "_addr",
          "type": "address"
        }
      ],
      "stateMutability": "nonpayable",
      "type": "constructor"
    },
    {
      "inputs": [
        {
          "internalType": "uint256",
          "name": "",
          "type": "uint256"
        }
      ],
      "name": "FreightBooking",
      "outputs": [
        {
          "internalType": "uint256",
          "name": "oid",
          "type": "uint256"
        },
        {
          "internalType": "string",
          "name": "bname",
          "type": "string"
        },
        {
          "internalType": "uint256",
          "name": "bnum",
          "type": "uint256"
        },
        {
          "internalType": "uint256",
          "name": "bpincode",
          "type": "uint256"
        },
        {
          "internalType": "bool",
          "name": "booked",
          "type": "bool"
        }
      ],
      "stateMutability": "view",
      "type": "function",
      "constant": true
    },
    {
      "inputs": [
        {
          "internalType": "uint256",
          "name": "",
          "type": "uint256"
        }
      ],
      "name": "pickups",
      "outputs": [
        {
          "internalType": "uint256",
          "name": "exportId",
          "type": "uint256"
        },
        {
          "internalType": "address",
          "name": "seller",
          "type": "address"
        },
        {
          "internalType": "string",
          "name": "buyer",
          "type": "string"
        },
        {
          "internalType": "uint256",
          "name": "buyerPinCode",
          "type": "uint256"
        },
        {
          "internalType": "bool",
          "name": "picked",
          "type": "bool"
        },
        {
          "internalType": "bool",
          "name": "exportC",
          "type": "bool"
        },
        {
          "internalType": "bool",
          "name": "importC",
          "type": "bool"
        },
        {
          "internalType": "bool",
          "name": "delivertStarted",
          "type": "bool"
        },
        {
          "internalType": "bool",
          "name": "delivered",
          "type": "bool"
        }
      ],
      "stateMutability": "view",
      "type": "function",
      "constant": true
    },
    {
      "inputs": [
        {
          "internalType": "address",
          "name": "addrs",
          "type": "address"
        }
      ],
      "name": "chooseClearence",
      "outputs": [
        {
          "internalType": "address",
          "name": "",
          "type": "address"
        }
      ],
      "stateMutability": "nonpayable",
      "type": "function"
    },
    {
      "inputs": [
        {
          "internalType": "uint256",
          "name": "oid",
          "type": "uint256"
        },
        {
          "internalType": "address",
          "name": "_seller",
          "type": "address"
        }
      ],
      "name": "bookFreight",
      "outputs": [
        {
          "internalType": "uint256",
          "name": "",
          "type": "uint256"
        },
        {
          "internalType": "address",
          "name": "",
          "type": "address"
        }
      ],
      "stateMutability": "nonpayable",
      "type": "function"
    },
    {
      "inputs": [
        {
          "internalType": "uint256",
          "name": "oid",
          "type": "uint256"
        }
      ],
      "name": "viewBooking",
      "outputs": [
        {
          "components": [
            {
              "internalType": "uint256",
              "name": "oid",
              "type": "uint256"
            },
            {
              "internalType": "string",
              "name": "bname",
              "type": "string"
            },
            {
              "internalType": "uint256",
              "name": "bnum",
              "type": "uint256"
            },
            {
              "internalType": "uint256",
              "name": "bpincode",
              "type": "uint256"
            },
            {
              "internalType": "bool",
              "name": "booked",
              "type": "bool"
            }
          ],
          "internalType": "struct Forwarder.FreightBook",
          "name": "",
          "type": "tuple"
        }
      ],
      "stateMutability": "view",
      "type": "function",
      "constant": true
    },
    {
      "inputs": [
        {
          "internalType": "uint256",
          "name": "oid",
          "type": "uint256"
        }
      ],
      "name": "pickup",
      "outputs": [],
      "stateMutability": "nonpayable",
      "type": "function"
    },
    {
      "inputs": [
        {
          "internalType": "uint256",
          "name": "id",
          "type": "uint256"
        }
      ],
      "name": "viewPickupDetails",
      "outputs": [
        {
          "components": [
            {
              "internalType": "uint256",
              "name": "exportId",
              "type": "uint256"
            },
            {
              "internalType": "address",
              "name": "seller",
              "type": "address"
            },
            {
              "internalType": "string",
              "name": "buyer",
              "type": "string"
            },
            {
              "internalType": "uint256",
              "name": "buyerPinCode",
              "type": "uint256"
            },
            {
              "internalType": "bool",
              "name": "picked",
              "type": "bool"
            },
            {
              "internalType": "bool",
              "name": "exportC",
              "type": "bool"
            },
            {
              "internalType": "bool",
              "name": "importC",
              "type": "bool"
            },
            {
              "internalType": "bool",
              "name": "delivertStarted",
              "type": "bool"
            },
            {
              "internalType": "bool",
              "name": "delivered",
              "type": "bool"
            }
          ],
          "internalType": "struct Forwarder.pickD",
          "name": "",
          "type": "tuple"
        }
      ],
      "stateMutability": "view",
      "type": "function",
      "constant": true
    },
    {
      "inputs": [
        {
          "internalType": "uint256",
          "name": "_expoID",
          "type": "uint256"
        }
      ],
      "name": "startDelivery",
      "outputs": [],
      "stateMutability": "nonpayable",
      "type": "function"
    },
    {
      "inputs": [
        {
          "internalType": "uint256",
          "name": "_expoID",
          "type": "uint256"
        }
      ],
      "name": "Delivery",
      "outputs": [],
      "stateMutability": "nonpayable",
      "type": "function"
    }
  ],
  "bytecode": "0x60806040526001600555670de0b6b3a76400006007553480156200002257600080fd5b5060405162001fbb38038062001fbb8339818101604052810190620000489190620000fa565b80600360006101000a81548173ffffffffffffffffffffffffffffffffffffffff021916908373ffffffffffffffffffffffffffffffffffffffff160217905550506200012c565b600080fd5b600073ffffffffffffffffffffffffffffffffffffffff82169050919050565b6000620000c28262000095565b9050919050565b620000d481620000b5565b8114620000e057600080fd5b50565b600081519050620000f481620000c9565b92915050565b60006020828403121562000113576200011262000090565b5b60006200012384828501620000e3565b91505092915050565b611e7f806200013c6000396000f3fe608060405234801561001057600080fd5b50600436106100935760003560e01c806387d764741161006657806387d76474146101485780638af35478146101645780639a50ae011461019c578063eb283261146101b8578063fb75386f146101e957610093565b806319461a2a146100985780632bfcb0f4146100cc578063385fe0a9146100fc5780637eea11ea14610118575b600080fd5b6100b260048036038101906100ad91906110ba565b610219565b6040516100c39594939291906111a1565b60405180910390f35b6100e660048036038101906100e19190611259565b6102e4565b6040516100f39190611295565b60405180910390f35b610116600480360381019061011191906110ba565b61032f565b005b610132600480360381019061012d91906110ba565b61045b565b60405161013f919061138e565b60405180910390f35b610162600480360381019061015d91906110ba565b610553565b005b61017e600480360381019061017991906110ba565b610753565b604051610193999897969594939291906113b0565b60405180910390f35b6101b660048036038101906101b191906110ba565b61088a565b005b6101d260048036038101906101cd9190611444565b610bec565b6040516101e0929190611484565b60405180910390f35b61020360048036038101906101fe91906110ba565b610e22565b6040516102109190611581565b60405180910390f35b6006602052806000526040600020600091509050806000015490806001018054610242906115d2565b80601f016020809104026020016040519081016040528092919081815260200182805461026e906115d2565b80156102bb5780601f10610290576101008083540402835291602001916102bb565b820191906000526020600020905b81548152906001019060200180831161029e57829003601f168201915b5050505050908060020154908060030154908060040160009054906101000a900460ff16905085565b600081600260006101000a81548173ffffffffffffffffffffffffffffffffffffffff021916908373ffffffffffffffffffffffffffffffffffffffff160217905550819050919050565b600360009054906101000a900473ffffffffffffffffffffffffffffffffffffffff1673ffffffffffffffffffffffffffffffffffffffff163373ffffffffffffffffffffffffffffffffffffffff16146103bf576040517f08c379a00000000000000000000000000000000000000000000000000000000081526004016103b69061164f565b60405180910390fd5b600015156008600083815260200190815260200160002060040160039054906101000a900460ff16151514610429576040517f08c379a0000000000000000000000000000000000000000000000000000000008152600401610420906116bb565b60405180910390fd5b60016008600083815260200190815260200160002060040160036101000a81548160ff02191690831515021790555050565b610463610fd3565b600660008381526020019081526020016000206040518060a00160405290816000820154815260200160018201805461049b906115d2565b80601f01602080910402602001604051908101604052809291908181526020018280546104c7906115d2565b80156105145780601f106104e957610100808354040283529160200191610514565b820191906000526020600020905b8154815290600101906020018083116104f757829003601f168201915b5050505050815260200160028201548152602001600382015481526020016004820160009054906101000a900460ff1615151515815250509050919050565b600360009054906101000a900473ffffffffffffffffffffffffffffffffffffffff1673ffffffffffffffffffffffffffffffffffffffff163373ffffffffffffffffffffffffffffffffffffffff16146105e3576040517f08c379a00000000000000000000000000000000000000000000000000000000081526004016105da9061164f565b60405180910390fd5b600115156008600083815260200190815260200160002060040160019054906101000a900460ff1615151461064d576040517f08c379a000000000000000000000000000000000000000000000000000000000815260040161064490611727565b60405180910390fd5b600115156008600083815260200190815260200160002060040160029054906101000a900460ff161515146106b7576040517f08c379a00000000000000000000000000000000000000000000000000000000081526004016106ae90611793565b60405180910390fd5b600015156008600083815260200190815260200160002060040160049054906101000a900460ff16151514610721576040517f08c379a0000000000000000000000000000000000000000000000000000000008152600401610718906117ff565b60405180910390fd5b60016008600083815260200190815260200160002060040160046101000a81548160ff02191690831515021790555050565b60086020528060005260406000206000915090508060000154908060010160009054906101000a900473ffffffffffffffffffffffffffffffffffffffff16908060020180546107a2906115d2565b80601f01602080910402602001604051908101604052809291908181526020018280546107ce906115d2565b801561081b5780601f106107f05761010080835404028352916020019161081b565b820191906000526020600020905b8154815290600101906020018083116107fe57829003601f168201915b5050505050908060030154908060040160009054906101000a900460ff16908060040160019054906101000a900460ff16908060040160029054906101000a900460ff16908060040160039054906101000a900460ff16908060040160049054906101000a900460ff16905089565b600360009054906101000a900473ffffffffffffffffffffffffffffffffffffffff1673ffffffffffffffffffffffffffffffffffffffff163373ffffffffffffffffffffffffffffffffffffffff161461091a576040517f08c379a00000000000000000000000000000000000000000000000000000000081526004016109119061164f565b60405180910390fd5b600115156006600083815260200190815260200160002060040160009054906101000a900460ff16151514610984576040517f08c379a000000000000000000000000000000000000000000000000000000000815260040161097b9061186b565b60405180910390fd5b600080600080600160009054906101000a900473ffffffffffffffffffffffffffffffffffffffff1673ffffffffffffffffffffffffffffffffffffffff16639a50ae01866040518263ffffffff1660e01b81526004016109e5919061188b565b600060405180830381865afa158015610a02573d6000803e3d6000fd5b505050506040513d6000823e3d601f19601f82011682018060405250810190610a2b91906119f6565b93509350935093508360098190555060405180610120016040528060055481526020018473ffffffffffffffffffffffffffffffffffffffff168152602001838152602001828152602001600115158152602001600015158152602001600015158152602001600015158152602001600015158152506008600060055481526020019081526020016000206000820151816000015560208201518160010160006101000a81548173ffffffffffffffffffffffffffffffffffffffff021916908373ffffffffffffffffffffffffffffffffffffffff1602179055506040820151816002019081610b1c9190611c25565b506060820151816003015560808201518160040160006101000a81548160ff02191690831515021790555060a08201518160040160016101000a81548160ff02191690831515021790555060c08201518160040160026101000a81548160ff02191690831515021790555060e08201518160040160036101000a81548160ff0219169083151502179055506101008201518160040160046101000a81548160ff021916908315150217905550905050600160056000828254610bde9190611d26565b925050819055505050505050565b600080600015156006600086815260200190815260200160002060040160009054906101000a900460ff16151514610c59576040517f08c379a0000000000000000000000000000000000000000000000000000000008152600401610c5090611da6565b60405180910390fd5b82600160006101000a81548173ffffffffffffffffffffffffffffffffffffffff021916908373ffffffffffffffffffffffffffffffffffffffff160217905550600080600080600160009054906101000a900473ffffffffffffffffffffffffffffffffffffffff1673ffffffffffffffffffffffffffffffffffffffff16638be16cdb896040518263ffffffff1660e01b8152600401610cfb919061188b565b600060405180830381865afa158015610d18573d6000803e3d6000fd5b505050506040513d6000823e3d601f19601f82011682018060405250810190610d419190611dc6565b935093509350935083600660008a81526020019081526020016000206000018190555082600660008a81526020019081526020016000206001019081610d879190611c25565b5081600660008a81526020019081526020016000206002018190555080600660008a8152602001908152602001600020600301819055506001600660008a815260200190815260200160002060040160006101000a81548160ff021916908315150217905550600754600360009054906101000a900473ffffffffffffffffffffffffffffffffffffffff1695509550505050509250929050565b610e2a611004565b6008600083815260200190815260200160002060405180610120016040529081600082015481526020016001820160009054906101000a900473ffffffffffffffffffffffffffffffffffffffff1673ffffffffffffffffffffffffffffffffffffffff1673ffffffffffffffffffffffffffffffffffffffff168152602001600282018054610eb9906115d2565b80601f0160208091040260200160405190810160405280929190818152602001828054610ee5906115d2565b8015610f325780601f10610f0757610100808354040283529160200191610f32565b820191906000526020600020905b815481529060010190602001808311610f1557829003601f168201915b50505050508152602001600382015481526020016004820160009054906101000a900460ff161515151581526020016004820160019054906101000a900460ff161515151581526020016004820160029054906101000a900460ff161515151581526020016004820160039054906101000a900460ff161515151581526020016004820160049054906101000a900460ff1615151515815250509050919050565b6040518060a00160405280600081526020016060815260200160008152602001600081526020016000151581525090565b60405180610120016040528060008152602001600073ffffffffffffffffffffffffffffffffffffffff16815260200160608152602001600081526020016000151581526020016000151581526020016000151581526020016000151581526020016000151581525090565b6000604051905090565b600080fd5b600080fd5b6000819050919050565b61109781611084565b81146110a257600080fd5b50565b6000813590506110b48161108e565b92915050565b6000602082840312156110d0576110cf61107a565b5b60006110de848285016110a5565b91505092915050565b6110f081611084565b82525050565b600081519050919050565b600082825260208201905092915050565b60005b83811015611130578082015181840152602081019050611115565b60008484015250505050565b6000601f19601f8301169050919050565b6000611158826110f6565b6111628185611101565b9350611172818560208601611112565b61117b8161113c565b840191505092915050565b60008115159050919050565b61119b81611186565b82525050565b600060a0820190506111b660008301886110e7565b81810360208301526111c8818761114d565b90506111d760408301866110e7565b6111e460608301856110e7565b6111f16080830184611192565b9695505050505050565b600073ffffffffffffffffffffffffffffffffffffffff82169050919050565b6000611226826111fb565b9050919050565b6112368161121b565b811461124157600080fd5b50565b6000813590506112538161122d565b92915050565b60006020828403121561126f5761126e61107a565b5b600061127d84828501611244565b91505092915050565b61128f8161121b565b82525050565b60006020820190506112aa6000830184611286565b92915050565b6112b981611084565b82525050565b600082825260208201905092915050565b60006112db826110f6565b6112e581856112bf565b93506112f5818560208601611112565b6112fe8161113c565b840191505092915050565b61131281611186565b82525050565b600060a08301600083015161133060008601826112b0565b506020830151848203602086015261134882826112d0565b915050604083015161135d60408601826112b0565b50606083015161137060608601826112b0565b5060808301516113836080860182611309565b508091505092915050565b600060208201905081810360008301526113a88184611318565b905092915050565b6000610120820190506113c6600083018c6110e7565b6113d3602083018b611286565b81810360408301526113e5818a61114d565b90506113f460608301896110e7565b6114016080830188611192565b61140e60a0830187611192565b61141b60c0830186611192565b61142860e0830185611192565b611436610100830184611192565b9a9950505050505050505050565b6000806040838503121561145b5761145a61107a565b5b6000611469858286016110a5565b925050602061147a85828601611244565b9150509250929050565b600060408201905061149960008301856110e7565b6114a66020830184611286565b9392505050565b6114b68161121b565b82525050565b6000610120830160008301516114d560008601826112b0565b5060208301516114e860208601826114ad565b506040830151848203604086015261150082826112d0565b915050606083015161151560608601826112b0565b5060808301516115286080860182611309565b5060a083015161153b60a0860182611309565b5060c083015161154e60c0860182611309565b5060e083015161156160e0860182611309565b50610100830151611576610100860182611309565b508091505092915050565b6000602082019050818103600083015261159b81846114bc565b905092915050565b7f4e487b7100000000000000000000000000000000000000000000000000000000600052602260045260246000fd5b600060028204905060018216806115ea57607f821691505b6020821081036115fd576115fc6115a3565b5b50919050565b7f4e6f742061204672656967687465720000000000000000000000000000000000600082015250565b6000611639600f83611101565b915061164482611603565b602082019050919050565b600060208201905081810360008301526116688161162c565b9050919050565b7f416c726561647920737461727465640000000000000000000000000000000000600082015250565b60006116a5600f83611101565b91506116b08261166f565b602082019050919050565b600060208201905081810360008301526116d481611698565b9050919050565b7f6578706f727420636c656172656e6365206e6565646564000000000000000000600082015250565b6000611711601783611101565b915061171c826116db565b602082019050919050565b6000602082019050818103600083015261174081611704565b9050919050565b7f496d706f727420636c656172656e6365206e6564646564000000000000000000600082015250565b600061177d601783611101565b915061178882611747565b602082019050919050565b600060208201905081810360008301526117ac81611770565b9050919050565b7f416c72656164792064656c697665726564000000000000000000000000000000600082015250565b60006117e9601183611101565b91506117f4826117b3565b602082019050919050565b60006020820190508181036000830152611818816117dc565b9050919050565b7f467265696768746572206e6f7420626f6f6b6564000000000000000000000000600082015250565b6000611855601483611101565b91506118608261181f565b602082019050919050565b6000602082019050818103600083015261188481611848565b9050919050565b60006020820190506118a060008301846110e7565b92915050565b6000815190506118b58161108e565b92915050565b6000815190506118ca8161122d565b92915050565b600080fd5b600080fd5b7f4e487b7100000000000000000000000000000000000000000000000000000000600052604160045260246000fd5b6119128261113c565b810181811067ffffffffffffffff82111715611931576119306118da565b5b80604052505050565b6000611944611070565b90506119508282611909565b919050565b600067ffffffffffffffff8211156119705761196f6118da565b5b6119798261113c565b9050602081019050919050565b600061199961199484611955565b61193a565b9050828152602081018484840111156119b5576119b46118d5565b5b6119c0848285611112565b509392505050565b600082601f8301126119dd576119dc6118d0565b5b81516119ed848260208601611986565b91505092915050565b60008060008060808587031215611a1057611a0f61107a565b5b6000611a1e878288016118a6565b9450506020611a2f878288016118bb565b935050604085015167ffffffffffffffff811115611a5057611a4f61107f565b5b611a5c878288016119c8565b9250506060611a6d878288016118a6565b91505092959194509250565b60008190508160005260206000209050919050565b60006020601f8301049050919050565b600082821b905092915050565b600060088302611adb7fffffffffffffffffffffffffffffffffffffffffffffffffffffffffffffffff82611a9e565b611ae58683611a9e565b95508019841693508086168417925050509392505050565b6000819050919050565b6000611b22611b1d611b1884611084565b611afd565b611084565b9050919050565b6000819050919050565b611b3c83611b07565b611b50611b4882611b29565b848454611aab565b825550505050565b600090565b611b65611b58565b611b70818484611b33565b505050565b5b81811015611b9457611b89600082611b5d565b600181019050611b76565b5050565b601f821115611bd957611baa81611a79565b611bb384611a8e565b81016020851015611bc2578190505b611bd6611bce85611a8e565b830182611b75565b50505b505050565b600082821c905092915050565b6000611bfc60001984600802611bde565b1980831691505092915050565b6000611c158383611beb565b9150826002028217905092915050565b611c2e826110f6565b67ffffffffffffffff811115611c4757611c466118da565b5b611c5182546115d2565b611c5c828285611b98565b600060209050601f831160018114611c8f5760008415611c7d578287015190505b611c878582611c09565b865550611cef565b601f198416611c9d86611a79565b60005b82811015611cc557848901518255600182019150602085019450602081019050611ca0565b86831015611ce25784890151611cde601f891682611beb565b8355505b6001600288020188555050505b505050505050565b7f4e487b7100000000000000000000000000000000000000000000000000000000600052601160045260246000fd5b6000611d3182611084565b9150611d3c83611084565b9250828201905080821115611d5457611d53611cf7565b5b92915050565b7f416c726561647920626f6f6b6564000000000000000000000000000000000000600082015250565b6000611d90600e83611101565b9150611d9b82611d5a565b602082019050919050565b60006020820190508181036000830152611dbf81611d83565b9050919050565b60008060008060808587031215611de057611ddf61107a565b5b6000611dee878288016118a6565b945050602085015167ffffffffffffffff811115611e0f57611e0e61107f565b5b611e1b878288016119c8565b9350506040611e2c878288016118a6565b9250506060611e3d878288016118a6565b9150509295919450925056fea2646970667358221220d96b504370023ad62513c57b73b90849b817588522b2853e605bd7827c62d1f964736f6c63430008100033",
  "immutableReferences": {},
  "source": "// SPDX-License-Identifier: MIT\r\nimport \"./buyer.sol\";\r\nimport \"./seller.sol\";\r\nimport \"./portclearnce.sol\";\r\n\r\npragma solidity ^0.8.16;\r\n\r\ncontract Forwarder{\r\n\r\n    Buyer b;\r\n    Seller s;\r\n    clearence c;\r\n    address logisticAddr;\r\n    uint oid;\r\n\r\n    struct FreightBook{\r\n        uint oid;\r\n        string  bname;\r\n        uint bnum;\r\n        uint bpincode;\r\n        bool booked;\r\n    }\r\n\r\n    uint exportCount=1;\r\n\r\n    struct pickD{\r\n        //uint id;\r\n        uint exportId;\r\n        address seller;\r\n        string buyer;\r\n        uint buyerPinCode;\r\n        bool picked;\r\n        bool exportC;\r\n        bool importC;\r\n        \r\n        bool delivertStarted;\r\n        bool delivered;\r\n    }\r\n\r\n    mapping (uint => FreightBook) public FreightBooking;\r\n    uint charges = 1000000000000000000;\r\n    mapping (uint => pickD) public pickups;\r\n    \r\n    constructor (address _addr){\r\n        logisticAddr = _addr;\r\n    }\r\n\r\n    modifier onlyFreighter() {\r\n        require(msg.sender==logisticAddr, \"Not a Freighter\");\r\n        _;\r\n    }\r\n\r\n    function chooseClearence(address addrs) public returns(address) {\r\n        \r\n        c = clearence(addrs);\r\n        return addrs;\r\n    }\r\n\r\n   \r\n\r\n    function bookFreight(uint oid,address _seller) external returns(uint,address) {\r\n       require(FreightBooking[oid].booked == false, \"Already booked\");\r\n       s = Seller(_seller);\r\n\r\n\r\n       (uint _oid,string memory bname, uint _bnum,uint _pincode) = s.giveDetails(oid);\r\n       \r\n       FreightBooking[oid].oid=_oid;\r\n       FreightBooking[oid].bname = bname;\r\n       FreightBooking[oid].bnum = _bnum;\r\n       FreightBooking[oid].bpincode = _pincode;\r\n       FreightBooking[oid].booked = true;\r\n       \r\n       return (charges,logisticAddr);\r\n\r\n    }\r\n\r\n    function viewBooking (uint oid) public view returns(FreightBook memory){\r\n         return FreightBooking[oid];\r\n    }\r\n\r\n    uint newoid;\r\n    \r\n    function pickup(uint oid) public onlyFreighter{\r\n       //pickups[oid].id  \r\n       require(FreightBooking[oid].booked == true, \"Freighter not booked\");\r\n\r\n       (uint _oid,address _s,string memory _badr,uint _pincode) = s.pickup(oid);\r\n        newoid = _oid;\r\n       pickups[exportCount] = pickD(exportCount,_s,_badr,_pincode,true,false,false,false,false);\r\n       exportCount += 1;\r\n    }\r\n\r\n    function viewPickupDetails(uint id) public view  returns(pickD memory) {\r\n        return pickups[id];\r\n    }\r\n\r\n    \r\n   function startDelivery(uint _expoID) public onlyFreighter {\r\n       require(pickups[_expoID].delivertStarted == false, \"Already started\");\r\n\r\n        pickups[_expoID].delivertStarted = true;\r\n \r\n    }\r\n\r\n    function Delivery(uint _expoID) public onlyFreighter {\r\n        require(pickups[_expoID].exportC == true, \"export clearence needed\");\r\n        require(pickups[_expoID].importC == true, \"Import clearence nedded\");\r\n        require(pickups[_expoID].delivered == false, \"Already delivered\");\r\n \r\n        pickups[_expoID].delivered = true;\r\n \r\n    }\r\n}",
  "sourcePath": "C:\\Users\\sakha\\online\\contracts\\logistic.sol",
  "compiler": {
    "name": "solc",
    "version": "0.8.16+commit.07a7930e.Emscripten.clang"
  },
  "schemaVersion": "3.4.9",
  "updatedAt": "2022-10-21T16:43:17.345Z",
  "networkType": "ethereum",
  "devdoc": {
    "kind": "dev",
    "methods": {},
    "version": 1
  },
  "userdoc": {
    "kind": "user",
    "methods": {},
    "version": 1
  }
}